{
  "_format": "hh-sol-artifact-1",
  "contractName": "Karu",
  "sourceName": "contracts/Karu.sol",
  "abi": [
    {
      "anonymous": false,
      "inputs": [
        {
          "indexed": true,
          "internalType": "address",
          "name": "owner",
          "type": "address"
        },
        {
          "indexed": true,
          "internalType": "address",
          "name": "approved",
          "type": "address"
        },
        {
          "indexed": true,
          "internalType": "uint256",
          "name": "tokenId",
          "type": "uint256"
        }
      ],
      "name": "Approval",
      "type": "event"
    },
    {
      "anonymous": false,
      "inputs": [
        {
          "indexed": true,
          "internalType": "address",
          "name": "owner",
          "type": "address"
        },
        {
          "indexed": true,
          "internalType": "address",
          "name": "operator",
          "type": "address"
        },
        {
          "indexed": false,
          "internalType": "bool",
          "name": "approved",
          "type": "bool"
        }
      ],
      "name": "ApprovalForAll",
      "type": "event"
    },
    {
      "anonymous": false,
      "inputs": [
        {
          "indexed": false,
          "internalType": "uint8",
          "name": "version",
          "type": "uint8"
        }
      ],
      "name": "Initialized",
      "type": "event"
    },
    {
      "anonymous": false,
      "inputs": [
        {
          "indexed": true,
          "internalType": "address",
          "name": "previousOwner",
          "type": "address"
        },
        {
          "indexed": true,
          "internalType": "address",
          "name": "newOwner",
          "type": "address"
        }
      ],
      "name": "OwnershipTransferred",
      "type": "event"
    },
    {
      "anonymous": false,
      "inputs": [
        {
          "indexed": true,
          "internalType": "address",
          "name": "from",
          "type": "address"
        },
        {
          "indexed": true,
          "internalType": "address",
          "name": "to",
          "type": "address"
        },
        {
          "indexed": true,
          "internalType": "uint256",
          "name": "tokenId",
          "type": "uint256"
        }
      ],
      "name": "Transfer",
      "type": "event"
    },
    {
      "inputs": [
        {
          "internalType": "address",
          "name": "to",
          "type": "address"
        },
        {
          "internalType": "uint256",
          "name": "tokenId",
          "type": "uint256"
        }
      ],
      "name": "approve",
      "outputs": [],
      "stateMutability": "nonpayable",
      "type": "function"
    },
    {
      "inputs": [
        {
          "internalType": "address",
          "name": "owner",
          "type": "address"
        }
      ],
      "name": "balanceOf",
      "outputs": [
        {
          "internalType": "uint256",
          "name": "",
          "type": "uint256"
        }
      ],
      "stateMutability": "view",
      "type": "function"
    },
    {
      "inputs": [
        {
          "internalType": "uint256",
          "name": "_tokenId",
          "type": "uint256"
        }
      ],
      "name": "buy",
      "outputs": [],
      "stateMutability": "payable",
      "type": "function"
    },
    {
      "inputs": [
        {
          "internalType": "uint256",
          "name": "tokenId",
          "type": "uint256"
        }
      ],
      "name": "getApproved",
      "outputs": [
        {
          "internalType": "address",
          "name": "",
          "type": "address"
        }
      ],
      "stateMutability": "view",
      "type": "function"
    },
    {
      "inputs": [
        {
          "internalType": "address",
          "name": "owner",
          "type": "address"
        },
        {
          "internalType": "address",
          "name": "operator",
          "type": "address"
        }
      ],
      "name": "isApprovedForAll",
      "outputs": [
        {
          "internalType": "bool",
          "name": "",
          "type": "bool"
        }
      ],
      "stateMutability": "view",
      "type": "function"
    },
    {
      "inputs": [
        {
          "internalType": "uint256",
          "name": "",
          "type": "uint256"
        }
      ],
      "name": "locked",
      "outputs": [
        {
          "internalType": "bool",
          "name": "",
          "type": "bool"
        }
      ],
      "stateMutability": "view",
      "type": "function"
    },
    {
      "inputs": [],
      "name": "mint",
      "outputs": [],
      "stateMutability": "payable",
      "type": "function"
    },
    {
      "inputs": [],
      "name": "name",
      "outputs": [
        {
          "internalType": "string",
          "name": "",
          "type": "string"
        }
      ],
      "stateMutability": "view",
      "type": "function"
    },
    {
      "inputs": [],
      "name": "owner",
      "outputs": [
        {
          "internalType": "address",
          "name": "",
          "type": "address"
        }
      ],
      "stateMutability": "view",
      "type": "function"
    },
    {
      "inputs": [
        {
          "internalType": "uint256",
          "name": "tokenId",
          "type": "uint256"
        }
      ],
      "name": "ownerOf",
      "outputs": [
        {
          "internalType": "address",
          "name": "",
          "type": "address"
        }
      ],
      "stateMutability": "view",
      "type": "function"
    },
    {
      "inputs": [],
      "name": "renounceOwnership",
      "outputs": [],
      "stateMutability": "nonpayable",
      "type": "function"
    },
    {
      "inputs": [
        {
          "internalType": "address",
          "name": "from",
          "type": "address"
        },
        {
          "internalType": "address",
          "name": "to",
          "type": "address"
        },
        {
          "internalType": "uint256",
          "name": "tokenId",
          "type": "uint256"
        }
      ],
      "name": "safeTransferFrom",
      "outputs": [],
      "stateMutability": "nonpayable",
      "type": "function"
    },
    {
      "inputs": [
        {
          "internalType": "address",
          "name": "from",
          "type": "address"
        },
        {
          "internalType": "address",
          "name": "to",
          "type": "address"
        },
        {
          "internalType": "uint256",
          "name": "tokenId",
          "type": "uint256"
        },
        {
          "internalType": "bytes",
          "name": "data",
          "type": "bytes"
        }
      ],
      "name": "safeTransferFrom",
      "outputs": [],
      "stateMutability": "nonpayable",
      "type": "function"
    },
    {
      "inputs": [
        {
          "internalType": "address",
          "name": "operator",
          "type": "address"
        },
        {
          "internalType": "bool",
          "name": "approved",
          "type": "bool"
        }
      ],
      "name": "setApprovalForAll",
      "outputs": [],
      "stateMutability": "nonpayable",
      "type": "function"
    },
    {
      "inputs": [
        {
          "internalType": "bytes4",
          "name": "interfaceId",
          "type": "bytes4"
        }
      ],
      "name": "supportsInterface",
      "outputs": [
        {
          "internalType": "bool",
          "name": "",
          "type": "bool"
        }
      ],
      "stateMutability": "view",
      "type": "function"
    },
    {
      "inputs": [],
      "name": "symbol",
      "outputs": [
        {
          "internalType": "string",
          "name": "",
          "type": "string"
        }
      ],
      "stateMutability": "view",
      "type": "function"
    },
    {
      "inputs": [
        {
          "internalType": "uint256",
          "name": "index",
          "type": "uint256"
        }
      ],
      "name": "tokenByIndex",
      "outputs": [
        {
          "internalType": "uint256",
          "name": "",
          "type": "uint256"
        }
      ],
      "stateMutability": "view",
      "type": "function"
    },
    {
      "inputs": [
        {
          "internalType": "address",
          "name": "owner",
          "type": "address"
        },
        {
          "internalType": "uint256",
          "name": "index",
          "type": "uint256"
        }
      ],
      "name": "tokenOfOwnerByIndex",
      "outputs": [
        {
          "internalType": "uint256",
          "name": "",
          "type": "uint256"
        }
      ],
      "stateMutability": "view",
      "type": "function"
    },
    {
      "inputs": [
        {
          "internalType": "uint256",
          "name": "tokenId",
          "type": "uint256"
        }
      ],
      "name": "tokenURI",
      "outputs": [
        {
          "internalType": "string",
          "name": "",
          "type": "string"
        }
      ],
      "stateMutability": "view",
      "type": "function"
    },
    {
      "inputs": [],
      "name": "totalSupply",
      "outputs": [
        {
          "internalType": "uint256",
          "name": "",
          "type": "uint256"
        }
      ],
      "stateMutability": "view",
      "type": "function"
    },
    {
      "inputs": [
        {
          "internalType": "address",
          "name": "from",
          "type": "address"
        },
        {
          "internalType": "address",
          "name": "to",
          "type": "address"
        },
        {
          "internalType": "uint256",
          "name": "tokenId",
          "type": "uint256"
        }
      ],
      "name": "transferFrom",
      "outputs": [],
      "stateMutability": "nonpayable",
      "type": "function"
    },
    {
      "inputs": [
        {
          "internalType": "address",
          "name": "newOwner",
          "type": "address"
        }
      ],
      "name": "transferOwnership",
      "outputs": [],
      "stateMutability": "nonpayable",
      "type": "function"
    }
  ],
  "bytecode": "0x608060405234801561001057600080fd5b506139d8806100206000396000f3fe6080604052600436106101355760003560e01c806370a08231116100ab578063b45a3c0e1161006f578063b45a3c0e14610419578063b88d4fde14610456578063c87b56dd1461047f578063d96a094a146104bc578063e985e9c5146104d8578063f2fde38b1461051557610135565b806370a0823114610346578063715018a6146103835780638da5cb5b1461039a57806395d89b41146103c5578063a22cb465146103f057610135565b806318160ddd116100fd57806318160ddd1461021257806323b872dd1461023d5780632f745c591461026657806342842e0e146102a35780634f6ccce7146102cc5780636352211e1461030957610135565b806301ffc9a71461013a57806306fdde0314610177578063081812fc146101a2578063095ea7b3146101df5780631249c58b14610208575b600080fd5b34801561014657600080fd5b50610161600480360381019061015c9190612743565b61053e565b60405161016e919061278b565b60405180910390f35b34801561018357600080fd5b5061018c6105b8565b6040516101999190612836565b60405180910390f35b3480156101ae57600080fd5b506101c960048036038101906101c4919061288e565b61064a565b6040516101d691906128fc565b60405180910390f35b3480156101eb57600080fd5b5061020660048036038101906102019190612943565b610690565b005b6102106107a7565b005b34801561021e57600080fd5b506102276108b7565b6040516102349190612992565b60405180910390f35b34801561024957600080fd5b50610264600480360381019061025f91906129ad565b6108c4565b005b34801561027257600080fd5b5061028d60048036038101906102889190612943565b610924565b60405161029a9190612992565b60405180910390f35b3480156102af57600080fd5b506102ca60048036038101906102c591906129ad565b6109c9565b005b3480156102d857600080fd5b506102f360048036038101906102ee919061288e565b6109e9565b6040516103009190612992565b60405180910390f35b34801561031557600080fd5b50610330600480360381019061032b919061288e565b610a5a565b60405161033d91906128fc565b60405180910390f35b34801561035257600080fd5b5061036d60048036038101906103689190612a00565b610ae0565b60405161037a9190612992565b60405180910390f35b34801561038f57600080fd5b50610398610b97565b005b3480156103a657600080fd5b506103af610bab565b6040516103bc91906128fc565b60405180910390f35b3480156103d157600080fd5b506103da610bd5565b6040516103e79190612836565b60405180910390f35b3480156103fc57600080fd5b5061041760048036038101906104129190612a59565b610c67565b005b34801561042557600080fd5b50610440600480360381019061043b919061288e565b610c7d565b60405161044d919061278b565b60405180910390f35b34801561046257600080fd5b5061047d60048036038101906104789190612bce565b610c9d565b005b34801561048b57600080fd5b506104a660048036038101906104a1919061288e565b610cff565b6040516104b39190612836565b60405180910390f35b6104d660048036038101906104d1919061288e565b610d67565b005b3480156104e457600080fd5b506104ff60048036038101906104fa9190612c51565b61111f565b60405161050c919061278b565b60405180910390f35b34801561052157600080fd5b5061053c60048036038101906105379190612a00565b6111b3565b005b60007f780e9d63000000000000000000000000000000000000000000000000000000007bffffffffffffffffffffffffffffffffffffffffffffffffffffffff1916827bffffffffffffffffffffffffffffffffffffffffffffffffffffffff191614806105b157506105b082611236565b5b9050919050565b6060606580546105c790612cc0565b80601f01602080910402602001604051908101604052809291908181526020018280546105f390612cc0565b80156106405780601f1061061557610100808354040283529160200191610640565b820191906000526020600020905b81548152906001019060200180831161062357829003601f168201915b5050505050905090565b600061065582611318565b6069600083815260200190815260200160002060009054906101000a900473ffffffffffffffffffffffffffffffffffffffff169050919050565b600061069b82610a5a565b90508073ffffffffffffffffffffffffffffffffffffffff168373ffffffffffffffffffffffffffffffffffffffff160361070b576040517f08c379a000000000000000000000000000000000000000000000000000000000815260040161070290612d63565b60405180910390fd5b8073ffffffffffffffffffffffffffffffffffffffff1661072a611363565b73ffffffffffffffffffffffffffffffffffffffff161480610759575061075881610753611363565b61111f565b5b610798576040517f08c379a000000000000000000000000000000000000000000000000000000000815260040161078f90612df5565b60405180910390fd5b6107a2838361136b565b505050565b600a34146107ea576040517f08c379a00000000000000000000000000000000000000000000000000000000081526004016107e190612e61565b60405180910390fd5b60006107f4610bab565b73ffffffffffffffffffffffffffffffffffffffff163460405161081790612eb2565b60006040518083038185875af1925050503d8060008114610854576040519150601f19603f3d011682016040523d82523d6000602084013e610859565b606091505b505090508061089d576040517f08c379a000000000000000000000000000000000000000000000000000000000815260040161089490612f13565b60405180910390fd5b60006108a76108b7565b90506108b33382611424565b5050565b6000609980549050905090565b6108d56108cf611363565b82611641565b610914576040517f08c379a000000000000000000000000000000000000000000000000000000000815260040161090b90612fa5565b60405180910390fd5b61091f8383836116d6565b505050565b600061092f83610ae0565b8210610970576040517f08c379a000000000000000000000000000000000000000000000000000000000815260040161096790613037565b60405180910390fd5b609760008473ffffffffffffffffffffffffffffffffffffffff1673ffffffffffffffffffffffffffffffffffffffff168152602001908152602001600020600083815260200190815260200160002054905092915050565b6109e483838360405180602001604052806000815250610c9d565b505050565b60006109f36108b7565b8210610a34576040517f08c379a0000000000000000000000000000000000000000000000000000000008152600401610a2b906130c9565b60405180910390fd5b60998281548110610a4857610a476130e9565b5b90600052602060002001549050919050565b600080610a66836119cf565b9050600073ffffffffffffffffffffffffffffffffffffffff168173ffffffffffffffffffffffffffffffffffffffff1603610ad7576040517f08c379a0000000000000000000000000000000000000000000000000000000008152600401610ace90613164565b60405180910390fd5b80915050919050565b60008073ffffffffffffffffffffffffffffffffffffffff168273ffffffffffffffffffffffffffffffffffffffff1603610b50576040517f08c379a0000000000000000000000000000000000000000000000000000000008152600401610b47906131f6565b60405180910390fd5b606860008373ffffffffffffffffffffffffffffffffffffffff1673ffffffffffffffffffffffffffffffffffffffff168152602001908152602001600020549050919050565b610b9f611a0c565b610ba96000611a8a565b565b600060c960009054906101000a900473ffffffffffffffffffffffffffffffffffffffff16905090565b606060668054610be490612cc0565b80601f0160208091040260200160405190810160405280929190818152602001828054610c1090612cc0565b8015610c5d5780601f10610c3257610100808354040283529160200191610c5d565b820191906000526020600020905b815481529060010190602001808311610c4057829003601f168201915b5050505050905090565b610c79610c72611363565b8383611b50565b5050565b60fb6020528060005260406000206000915054906101000a900460ff1681565b610cae610ca8611363565b83611641565b610ced576040517f08c379a0000000000000000000000000000000000000000000000000000000008152600401610ce490612fa5565b60405180910390fd5b610cf984848484611cbc565b50505050565b6060610d0a82611318565b6000610d14611d18565b90506000815111610d345760405180602001604052806000815250610d5f565b80610d3e84611d2f565b604051602001610d4f929190613252565b6040516020818303038152906040525b915050919050565b8060fb600082815260200190815260200160002060009054906101000a900460ff1615610dc9576040517f08c379a0000000000000000000000000000000000000000000000000000000008152600401610dc0906132e8565b60405180910390fd5b610e076040518060400160405280600781526020017f6d75746578203100000000000000000000000000000000000000000000000000815250611dfd565b600160fb600083815260200190815260200160002060006101000a81548160ff021916908315150217905550610e716040518060400160405280600781526020017f6d75746578203200000000000000000000000000000000000000000000000000815250611dfd565b610e79610bab565b73ffffffffffffffffffffffffffffffffffffffff16610e9883610a5a565b73ffffffffffffffffffffffffffffffffffffffff1614610eee576040517f08c379a0000000000000000000000000000000000000000000000000000000008152600401610ee590613354565b60405180910390fd5b610f2c6040518060400160405280600581526020017f6275792031000000000000000000000000000000000000000000000000000000815250611dfd565b600a3414610f6f576040517f08c379a0000000000000000000000000000000000000000000000000000000008152600401610f6690612e61565b60405180910390fd5b610fad6040518060400160405280600581526020017f6275792032000000000000000000000000000000000000000000000000000000815250611dfd565b6000610fb7610bab565b73ffffffffffffffffffffffffffffffffffffffff1634604051610fda90612eb2565b60006040518083038185875af1925050503d8060008114611017576040519150601f19603f3d011682016040523d82523d6000602084013e61101c565b606091505b5050905080611060576040517f08c379a000000000000000000000000000000000000000000000000000000000815260040161105790612f13565b60405180910390fd5b61107261106b610bab565b33856116d6565b6110b06040518060400160405280600581526020017f6275792033000000000000000000000000000000000000000000000000000000815250611dfd565b50600060fb600083815260200190815260200160002060006101000a81548160ff02191690831515021790555061111b6040518060400160405280600781526020017f6d75746578203300000000000000000000000000000000000000000000000000815250611dfd565b5050565b6000606a60008473ffffffffffffffffffffffffffffffffffffffff1673ffffffffffffffffffffffffffffffffffffffff16815260200190815260200160002060008373ffffffffffffffffffffffffffffffffffffffff1673ffffffffffffffffffffffffffffffffffffffff16815260200190815260200160002060009054906101000a900460ff16905092915050565b6111bb611a0c565b600073ffffffffffffffffffffffffffffffffffffffff168173ffffffffffffffffffffffffffffffffffffffff160361122a576040517f08c379a0000000000000000000000000000000000000000000000000000000008152600401611221906133e6565b60405180910390fd5b61123381611a8a565b50565b60007f80ac58cd000000000000000000000000000000000000000000000000000000007bffffffffffffffffffffffffffffffffffffffffffffffffffffffff1916827bffffffffffffffffffffffffffffffffffffffffffffffffffffffff1916148061130157507f5b5e139f000000000000000000000000000000000000000000000000000000007bffffffffffffffffffffffffffffffffffffffffffffffffffffffff1916827bffffffffffffffffffffffffffffffffffffffffffffffffffffffff1916145b80611311575061131082611e96565b5b9050919050565b61132181611f00565b611360576040517f08c379a000000000000000000000000000000000000000000000000000000000815260040161135790613164565b60405180910390fd5b50565b600033905090565b816069600083815260200190815260200160002060006101000a81548173ffffffffffffffffffffffffffffffffffffffff021916908373ffffffffffffffffffffffffffffffffffffffff160217905550808273ffffffffffffffffffffffffffffffffffffffff166113de83610a5a565b73ffffffffffffffffffffffffffffffffffffffff167f8c5be1e5ebec7d5bd14f71427d1e84f3dd0314c0f7b2291e5b200ac8c7c3b92560405160405180910390a45050565b600073ffffffffffffffffffffffffffffffffffffffff168273ffffffffffffffffffffffffffffffffffffffff1603611493576040517f08c379a000000000000000000000000000000000000000000000000000000000815260040161148a90613452565b60405180910390fd5b61149c81611f00565b156114dc576040517f08c379a00000000000000000000000000000000000000000000000000000000081526004016114d3906134be565b60405180910390fd5b6114ea600083836001611f41565b6114f381611f00565b15611533576040517f08c379a000000000000000000000000000000000000000000000000000000000815260040161152a906134be565b60405180910390fd5b6001606860008473ffffffffffffffffffffffffffffffffffffffff1673ffffffffffffffffffffffffffffffffffffffff16815260200190815260200160002060008282540192505081905550816067600083815260200190815260200160002060006101000a81548173ffffffffffffffffffffffffffffffffffffffff021916908373ffffffffffffffffffffffffffffffffffffffff160217905550808273ffffffffffffffffffffffffffffffffffffffff16600073ffffffffffffffffffffffffffffffffffffffff167fddf252ad1be2c89b69c2b068fc378daa952ba7f163c4a11628f55a4df523b3ef60405160405180910390a461163d60008383600161209f565b5050565b60008061164d83610a5a565b90508073ffffffffffffffffffffffffffffffffffffffff168473ffffffffffffffffffffffffffffffffffffffff16148061168f575061168e818561111f565b5b806116cd57508373ffffffffffffffffffffffffffffffffffffffff166116b58461064a565b73ffffffffffffffffffffffffffffffffffffffff16145b91505092915050565b8273ffffffffffffffffffffffffffffffffffffffff166116f682610a5a565b73ffffffffffffffffffffffffffffffffffffffff161461174c576040517f08c379a000000000000000000000000000000000000000000000000000000000815260040161174390613550565b60405180910390fd5b600073ffffffffffffffffffffffffffffffffffffffff168273ffffffffffffffffffffffffffffffffffffffff16036117bb576040517f08c379a00000000000000000000000000000000000000000000000000000000081526004016117b2906135e2565b60405180910390fd5b6117c88383836001611f41565b8273ffffffffffffffffffffffffffffffffffffffff166117e882610a5a565b73ffffffffffffffffffffffffffffffffffffffff161461183e576040517f08c379a000000000000000000000000000000000000000000000000000000000815260040161183590613550565b60405180910390fd5b6069600082815260200190815260200160002060006101000a81549073ffffffffffffffffffffffffffffffffffffffff02191690556001606860008573ffffffffffffffffffffffffffffffffffffffff1673ffffffffffffffffffffffffffffffffffffffff168152602001908152602001600020600082825403925050819055506001606860008473ffffffffffffffffffffffffffffffffffffffff1673ffffffffffffffffffffffffffffffffffffffff16815260200190815260200160002060008282540192505081905550816067600083815260200190815260200160002060006101000a81548173ffffffffffffffffffffffffffffffffffffffff021916908373ffffffffffffffffffffffffffffffffffffffff160217905550808273ffffffffffffffffffffffffffffffffffffffff168473ffffffffffffffffffffffffffffffffffffffff167fddf252ad1be2c89b69c2b068fc378daa952ba7f163c4a11628f55a4df523b3ef60405160405180910390a46119ca838383600161209f565b505050565b60006067600083815260200190815260200160002060009054906101000a900473ffffffffffffffffffffffffffffffffffffffff169050919050565b611a14611363565b73ffffffffffffffffffffffffffffffffffffffff16611a32610bab565b73ffffffffffffffffffffffffffffffffffffffff1614611a88576040517f08c379a0000000000000000000000000000000000000000000000000000000008152600401611a7f9061364e565b60405180910390fd5b565b600060c960009054906101000a900473ffffffffffffffffffffffffffffffffffffffff1690508160c960006101000a81548173ffffffffffffffffffffffffffffffffffffffff021916908373ffffffffffffffffffffffffffffffffffffffff1602179055508173ffffffffffffffffffffffffffffffffffffffff168173ffffffffffffffffffffffffffffffffffffffff167f8be0079c531659141344cd1fd0a4f28419497f9722a3daafe3b4186f6b6457e060405160405180910390a35050565b8173ffffffffffffffffffffffffffffffffffffffff168373ffffffffffffffffffffffffffffffffffffffff1603611bbe576040517f08c379a0000000000000000000000000000000000000000000000000000000008152600401611bb5906136ba565b60405180910390fd5b80606a60008573ffffffffffffffffffffffffffffffffffffffff1673ffffffffffffffffffffffffffffffffffffffff16815260200190815260200160002060008473ffffffffffffffffffffffffffffffffffffffff1673ffffffffffffffffffffffffffffffffffffffff16815260200190815260200160002060006101000a81548160ff0219169083151502179055508173ffffffffffffffffffffffffffffffffffffffff168373ffffffffffffffffffffffffffffffffffffffff167f17307eab39ab6107e8899845ad3d59bd9653f200f220920489ca2b5937696c3183604051611caf919061278b565b60405180910390a3505050565b611cc78484846116d6565b611cd3848484846120a5565b611d12576040517f08c379a0000000000000000000000000000000000000000000000000000000008152600401611d099061374c565b60405180910390fd5b50505050565b606060405180602001604052806000815250905090565b606060006001611d3e8461222c565b01905060008167ffffffffffffffff811115611d5d57611d5c612aa3565b5b6040519080825280601f01601f191660200182016040528015611d8f5781602001600182028036833780820191505090505b509050600082602001820190505b600115611df2578080600190039150507f3031323334353637383961626364656600000000000000000000000000000000600a86061a8153600a8581611de657611de561376c565b5b04945060008503611d9d575b819350505050919050565b611e9381604051602401611e119190612836565b6040516020818303038152906040527f41304fac000000000000000000000000000000000000000000000000000000007bffffffffffffffffffffffffffffffffffffffffffffffffffffffff19166020820180517bffffffffffffffffffffffffffffffffffffffffffffffffffffffff838183161783525050505061237f565b50565b60007f01ffc9a7000000000000000000000000000000000000000000000000000000007bffffffffffffffffffffffffffffffffffffffffffffffffffffffff1916827bffffffffffffffffffffffffffffffffffffffffffffffffffffffff1916149050919050565b60008073ffffffffffffffffffffffffffffffffffffffff16611f22836119cf565b73ffffffffffffffffffffffffffffffffffffffff1614159050919050565b611f4d848484846123a8565b6001811115611f91576040517f08c379a0000000000000000000000000000000000000000000000000000000008152600401611f889061380d565b60405180910390fd5b6000829050600073ffffffffffffffffffffffffffffffffffffffff168573ffffffffffffffffffffffffffffffffffffffff1603611fd857611fd3816123ae565b612017565b8373ffffffffffffffffffffffffffffffffffffffff168573ffffffffffffffffffffffffffffffffffffffff16146120165761201585826123f7565b5b5b600073ffffffffffffffffffffffffffffffffffffffff168473ffffffffffffffffffffffffffffffffffffffff16036120595761205481612564565b612098565b8473ffffffffffffffffffffffffffffffffffffffff168473ffffffffffffffffffffffffffffffffffffffff1614612097576120968482612635565b5b5b5050505050565b50505050565b60006120c68473ffffffffffffffffffffffffffffffffffffffff166126b4565b1561221f578373ffffffffffffffffffffffffffffffffffffffff1663150b7a026120ef611363565b8786866040518563ffffffff1660e01b81526004016121119493929190613882565b6020604051808303816000875af192505050801561214d57506040513d601f19601f8201168201806040525081019061214a91906138e3565b60015b6121cf573d806000811461217d576040519150601f19603f3d011682016040523d82523d6000602084013e612182565b606091505b5060008151036121c7576040517f08c379a00000000000000000000000000000000000000000000000000000000081526004016121be9061374c565b60405180910390fd5b805181602001fd5b63150b7a0260e01b7bffffffffffffffffffffffffffffffffffffffffffffffffffffffff1916817bffffffffffffffffffffffffffffffffffffffffffffffffffffffff191614915050612224565b600190505b949350505050565b600080600090507a184f03e93ff9f4daa797ed6e38ed64bf6a1f010000000000000000831061228a577a184f03e93ff9f4daa797ed6e38ed64bf6a1f01000000000000000083816122805761227f61376c565b5b0492506040810190505b6d04ee2d6d415b85acef810000000083106122c7576d04ee2d6d415b85acef810000000083816122bd576122bc61376c565b5b0492506020810190505b662386f26fc1000083106122f657662386f26fc1000083816122ec576122eb61376c565b5b0492506010810190505b6305f5e100831061231f576305f5e10083816123155761231461376c565b5b0492506008810190505b612710831061234457612710838161233a5761233961376c565b5b0492506004810190505b60648310612367576064838161235d5761235c61376c565b5b0492506002810190505b600a8310612376576001810190505b80915050919050565b60008151905060006a636f6e736f6c652e6c6f679050602083016000808483855afa5050505050565b50505050565b609980549050609a600083815260200190815260200160002081905550609981908060018154018082558091505060019003906000526020600020016000909190919091505550565b6000600161240484610ae0565b61240e919061393f565b90506000609860008481526020019081526020016000205490508181146124f3576000609760008673ffffffffffffffffffffffffffffffffffffffff1673ffffffffffffffffffffffffffffffffffffffff168152602001908152602001600020600084815260200190815260200160002054905080609760008773ffffffffffffffffffffffffffffffffffffffff1673ffffffffffffffffffffffffffffffffffffffff168152602001908152602001600020600084815260200190815260200160002081905550816098600083815260200190815260200160002081905550505b6098600084815260200190815260200160002060009055609760008573ffffffffffffffffffffffffffffffffffffffff1673ffffffffffffffffffffffffffffffffffffffff16815260200190815260200160002060008381526020019081526020016000206000905550505050565b60006001609980549050612578919061393f565b90506000609a60008481526020019081526020016000205490506000609983815481106125a8576125a76130e9565b5b9060005260206000200154905080609983815481106125ca576125c96130e9565b5b906000526020600020018190555081609a600083815260200190815260200160002081905550609a600085815260200190815260200160002060009055609980548061261957612618613973565b5b6001900381819060005260206000200160009055905550505050565b600061264083610ae0565b905081609760008573ffffffffffffffffffffffffffffffffffffffff1673ffffffffffffffffffffffffffffffffffffffff168152602001908152602001600020600083815260200190815260200160002081905550806098600084815260200190815260200160002081905550505050565b6000808273ffffffffffffffffffffffffffffffffffffffff163b119050919050565b6000604051905090565b600080fd5b600080fd5b60007fffffffff0000000000000000000000000000000000000000000000000000000082169050919050565b612720816126eb565b811461272b57600080fd5b50565b60008135905061273d81612717565b92915050565b600060208284031215612759576127586126e1565b5b60006127678482850161272e565b91505092915050565b60008115159050919050565b61278581612770565b82525050565b60006020820190506127a0600083018461277c565b92915050565b600081519050919050565b600082825260208201905092915050565b60005b838110156127e05780820151818401526020810190506127c5565b60008484015250505050565b6000601f19601f8301169050919050565b6000612808826127a6565b61281281856127b1565b93506128228185602086016127c2565b61282b816127ec565b840191505092915050565b6000602082019050818103600083015261285081846127fd565b905092915050565b6000819050919050565b61286b81612858565b811461287657600080fd5b50565b60008135905061288881612862565b92915050565b6000602082840312156128a4576128a36126e1565b5b60006128b284828501612879565b91505092915050565b600073ffffffffffffffffffffffffffffffffffffffff82169050919050565b60006128e6826128bb565b9050919050565b6128f6816128db565b82525050565b600060208201905061291160008301846128ed565b92915050565b612920816128db565b811461292b57600080fd5b50565b60008135905061293d81612917565b92915050565b6000806040838503121561295a576129596126e1565b5b60006129688582860161292e565b925050602061297985828601612879565b9150509250929050565b61298c81612858565b82525050565b60006020820190506129a76000830184612983565b92915050565b6000806000606084860312156129c6576129c56126e1565b5b60006129d48682870161292e565b93505060206129e58682870161292e565b92505060406129f686828701612879565b9150509250925092565b600060208284031215612a1657612a156126e1565b5b6000612a248482850161292e565b91505092915050565b612a3681612770565b8114612a4157600080fd5b50565b600081359050612a5381612a2d565b92915050565b60008060408385031215612a7057612a6f6126e1565b5b6000612a7e8582860161292e565b9250506020612a8f85828601612a44565b9150509250929050565b600080fd5b600080fd5b7f4e487b7100000000000000000000000000000000000000000000000000000000600052604160045260246000fd5b612adb826127ec565b810181811067ffffffffffffffff82111715612afa57612af9612aa3565b5b80604052505050565b6000612b0d6126d7565b9050612b198282612ad2565b919050565b600067ffffffffffffffff821115612b3957612b38612aa3565b5b612b42826127ec565b9050602081019050919050565b82818337600083830152505050565b6000612b71612b6c84612b1e565b612b03565b905082815260208101848484011115612b8d57612b8c612a9e565b5b612b98848285612b4f565b509392505050565b600082601f830112612bb557612bb4612a99565b5b8135612bc5848260208601612b5e565b91505092915050565b60008060008060808587031215612be857612be76126e1565b5b6000612bf68782880161292e565b9450506020612c078782880161292e565b9350506040612c1887828801612879565b925050606085013567ffffffffffffffff811115612c3957612c386126e6565b5b612c4587828801612ba0565b91505092959194509250565b60008060408385031215612c6857612c676126e1565b5b6000612c768582860161292e565b9250506020612c878582860161292e565b9150509250929050565b7f4e487b7100000000000000000000000000000000000000000000000000000000600052602260045260246000fd5b60006002820490506001821680612cd857607f821691505b602082108103612ceb57612cea612c91565b5b50919050565b7f4552433732313a20617070726f76616c20746f2063757272656e74206f776e6560008201527f7200000000000000000000000000000000000000000000000000000000000000602082015250565b6000612d4d6021836127b1565b9150612d5882612cf1565b604082019050919050565b60006020820190508181036000830152612d7c81612d40565b9050919050565b7f4552433732313a20617070726f76652063616c6c6572206973206e6f7420746f60008201527f6b656e206f776e6572206f7220617070726f76656420666f7220616c6c000000602082015250565b6000612ddf603d836127b1565b9150612dea82612d83565b604082019050919050565b60006020820190508181036000830152612e0e81612dd2565b9050919050565b7f596f75206e65656420746f207061792065746865720000000000000000000000600082015250565b6000612e4b6015836127b1565b9150612e5682612e15565b602082019050919050565b60006020820190508181036000830152612e7a81612e3e565b9050919050565b600081905092915050565b50565b6000612e9c600083612e81565b9150612ea782612e8c565b600082019050919050565b6000612ebd82612e8f565b9150819050919050565b7f5472616e73666572206661696c65640000000000000000000000000000000000600082015250565b6000612efd600f836127b1565b9150612f0882612ec7565b602082019050919050565b60006020820190508181036000830152612f2c81612ef0565b9050919050565b7f4552433732313a2063616c6c6572206973206e6f7420746f6b656e206f776e6560008201527f72206f7220617070726f76656400000000000000000000000000000000000000602082015250565b6000612f8f602d836127b1565b9150612f9a82612f33565b604082019050919050565b60006020820190508181036000830152612fbe81612f82565b9050919050565b7f455243373231456e756d657261626c653a206f776e657220696e646578206f7560008201527f74206f6620626f756e6473000000000000000000000000000000000000000000602082015250565b6000613021602b836127b1565b915061302c82612fc5565b604082019050919050565b6000602082019050818103600083015261305081613014565b9050919050565b7f455243373231456e756d657261626c653a20676c6f62616c20696e646578206f60008201527f7574206f6620626f756e64730000000000000000000000000000000000000000602082015250565b60006130b3602c836127b1565b91506130be82613057565b604082019050919050565b600060208201905081810360008301526130e2816130a6565b9050919050565b7f4e487b7100000000000000000000000000000000000000000000000000000000600052603260045260246000fd5b7f4552433732313a20696e76616c696420746f6b656e2049440000000000000000600082015250565b600061314e6018836127b1565b915061315982613118565b602082019050919050565b6000602082019050818103600083015261317d81613141565b9050919050565b7f4552433732313a2061646472657373207a65726f206973206e6f74206120766160008201527f6c6964206f776e65720000000000000000000000000000000000000000000000602082015250565b60006131e06029836127b1565b91506131eb82613184565b604082019050919050565b6000602082019050818103600083015261320f816131d3565b9050919050565b600081905092915050565b600061322c826127a6565b6132368185613216565b93506132468185602086016127c2565b80840191505092915050565b600061325e8285613221565b915061326a8284613221565b91508190509392505050565b7f49742069732063757272656e746c79206c6f636b65642c20706c65617365207460008201527f727920616761696e000000000000000000000000000000000000000000000000602082015250565b60006132d26028836127b1565b91506132dd82613276565b604082019050919050565b60006020820190508181036000830152613301816132c5565b9050919050565b7f54686973204e465420697320756e617661696c61626c65000000000000000000600082015250565b600061333e6017836127b1565b915061334982613308565b602082019050919050565b6000602082019050818103600083015261336d81613331565b9050919050565b7f4f776e61626c653a206e6577206f776e657220697320746865207a65726f206160008201527f6464726573730000000000000000000000000000000000000000000000000000602082015250565b60006133d06026836127b1565b91506133db82613374565b604082019050919050565b600060208201905081810360008301526133ff816133c3565b9050919050565b7f4552433732313a206d696e7420746f20746865207a65726f2061646472657373600082015250565b600061343c6020836127b1565b915061344782613406565b602082019050919050565b6000602082019050818103600083015261346b8161342f565b9050919050565b7f4552433732313a20746f6b656e20616c7265616479206d696e74656400000000600082015250565b60006134a8601c836127b1565b91506134b382613472565b602082019050919050565b600060208201905081810360008301526134d78161349b565b9050919050565b7f4552433732313a207472616e736665722066726f6d20696e636f72726563742060008201527f6f776e6572000000000000000000000000000000000000000000000000000000602082015250565b600061353a6025836127b1565b9150613545826134de565b604082019050919050565b600060208201905081810360008301526135698161352d565b9050919050565b7f4552433732313a207472616e7366657220746f20746865207a65726f2061646460008201527f7265737300000000000000000000000000000000000000000000000000000000602082015250565b60006135cc6024836127b1565b91506135d782613570565b604082019050919050565b600060208201905081810360008301526135fb816135bf565b9050919050565b7f4f776e61626c653a2063616c6c6572206973206e6f7420746865206f776e6572600082015250565b60006136386020836127b1565b915061364382613602565b602082019050919050565b600060208201905081810360008301526136678161362b565b9050919050565b7f4552433732313a20617070726f766520746f2063616c6c657200000000000000600082015250565b60006136a46019836127b1565b91506136af8261366e565b602082019050919050565b600060208201905081810360008301526136d381613697565b9050919050565b7f4552433732313a207472616e7366657220746f206e6f6e20455243373231526560008201527f63656976657220696d706c656d656e7465720000000000000000000000000000602082015250565b60006137366032836127b1565b9150613741826136da565b604082019050919050565b6000602082019050818103600083015261376581613729565b9050919050565b7f4e487b7100000000000000000000000000000000000000000000000000000000600052601260045260246000fd5b7f455243373231456e756d657261626c653a20636f6e736563757469766520747260008201527f616e7366657273206e6f7420737570706f727465640000000000000000000000602082015250565b60006137f76035836127b1565b91506138028261379b565b604082019050919050565b60006020820190508181036000830152613826816137ea565b9050919050565b600081519050919050565b600082825260208201905092915050565b60006138548261382d565b61385e8185613838565b935061386e8185602086016127c2565b613877816127ec565b840191505092915050565b600060808201905061389760008301876128ed565b6138a460208301866128ed565b6138b16040830185612983565b81810360608301526138c38184613849565b905095945050505050565b6000815190506138dd81612717565b92915050565b6000602082840312156138f9576138f86126e1565b5b6000613907848285016138ce565b91505092915050565b7f4e487b7100000000000000000000000000000000000000000000000000000000600052601160045260246000fd5b600061394a82612858565b915061395583612858565b925082820390508181111561396d5761396c613910565b5b92915050565b7f4e487b7100000000000000000000000000000000000000000000000000000000600052603160045260246000fdfea264697066735822122065beec69f50664c49bc82e807d45bfb17da26b0123ed11ee5df1f8519007650b64736f6c63430008120033",
  "linkReferences": {},
  "deployedLinkReferences": {}
}